{
  "_format": "hh-sol-artifact-1",
  "contractName": "CreditsNFT",
  "sourceName": "contracts/CreditsNFT.sol",
  "abi": [
    {
      "inputs": [
        {
          "internalType": "string",
          "name": "name",
          "type": "string"
        },
        {
          "internalType": "address",
          "name": "initialOwner",
          "type": "address"
        }
      ],
      "stateMutability": "nonpayable",
      "type": "constructor"
    },
    {
      "inputs": [
        {
          "internalType": "address",
          "name": "sender",
          "type": "address"
        },
        {
          "internalType": "uint256",
          "name": "tokenId",
          "type": "uint256"
        },
        {
          "internalType": "address",
          "name": "owner",
          "type": "address"
        }
      ],
      "name": "ERC721IncorrectOwner",
      "type": "error"
    },
    {
      "inputs": [
        {
          "internalType": "address",
          "name": "operator",
          "type": "address"
        },
        {
          "internalType": "uint256",
          "name": "tokenId",
          "type": "uint256"
        }
      ],
      "name": "ERC721InsufficientApproval",
      "type": "error"
    },
    {
      "inputs": [
        {
          "internalType": "address",
          "name": "approver",
          "type": "address"
        }
      ],
      "name": "ERC721InvalidApprover",
      "type": "error"
    },
    {
      "inputs": [
        {
          "internalType": "address",
          "name": "operator",
          "type": "address"
        }
      ],
      "name": "ERC721InvalidOperator",
      "type": "error"
    },
    {
      "inputs": [
        {
          "internalType": "address",
          "name": "owner",
          "type": "address"
        }
      ],
      "name": "ERC721InvalidOwner",
      "type": "error"
    },
    {
      "inputs": [
        {
          "internalType": "address",
          "name": "receiver",
          "type": "address"
        }
      ],
      "name": "ERC721InvalidReceiver",
      "type": "error"
    },
    {
      "inputs": [
        {
          "internalType": "address",
          "name": "sender",
          "type": "address"
        }
      ],
      "name": "ERC721InvalidSender",
      "type": "error"
    },
    {
      "inputs": [
        {
          "internalType": "uint256",
          "name": "tokenId",
          "type": "uint256"
        }
      ],
      "name": "ERC721NonexistentToken",
      "type": "error"
    },
    {
      "inputs": [
        {
          "internalType": "address",
          "name": "owner",
          "type": "address"
        }
      ],
      "name": "OwnableInvalidOwner",
      "type": "error"
    },
    {
      "inputs": [
        {
          "internalType": "address",
          "name": "account",
          "type": "address"
        }
      ],
      "name": "OwnableUnauthorizedAccount",
      "type": "error"
    },
    {
      "anonymous": false,
      "inputs": [
        {
          "indexed": true,
          "internalType": "address",
          "name": "owner",
          "type": "address"
        },
        {
          "indexed": true,
          "internalType": "address",
          "name": "approved",
          "type": "address"
        },
        {
          "indexed": true,
          "internalType": "uint256",
          "name": "tokenId",
          "type": "uint256"
        }
      ],
      "name": "Approval",
      "type": "event"
    },
    {
      "anonymous": false,
      "inputs": [
        {
          "indexed": true,
          "internalType": "address",
          "name": "owner",
          "type": "address"
        },
        {
          "indexed": true,
          "internalType": "address",
          "name": "operator",
          "type": "address"
        },
        {
          "indexed": false,
          "internalType": "bool",
          "name": "approved",
          "type": "bool"
        }
      ],
      "name": "ApprovalForAll",
      "type": "event"
    },
    {
      "anonymous": false,
      "inputs": [
        {
          "indexed": false,
          "internalType": "uint256",
          "name": "_fromTokenId",
          "type": "uint256"
        },
        {
          "indexed": false,
          "internalType": "uint256",
          "name": "_toTokenId",
          "type": "uint256"
        }
      ],
      "name": "BatchMetadataUpdate",
      "type": "event"
    },
    {
      "anonymous": false,
      "inputs": [
        {
          "indexed": false,
          "internalType": "uint256",
          "name": "_tokenId",
          "type": "uint256"
        }
      ],
      "name": "MetadataUpdate",
      "type": "event"
    },
    {
      "anonymous": false,
      "inputs": [
        {
          "indexed": true,
          "internalType": "address",
          "name": "recipient",
          "type": "address"
        },
        {
          "indexed": true,
          "internalType": "uint256",
          "name": "tokenId",
          "type": "uint256"
        },
        {
          "indexed": false,
          "internalType": "string",
          "name": "description",
          "type": "string"
        }
      ],
      "name": "NFTMinted",
      "type": "event"
    },
    {
      "anonymous": false,
      "inputs": [
        {
          "indexed": true,
          "internalType": "address",
          "name": "previousOwner",
          "type": "address"
        },
        {
          "indexed": true,
          "internalType": "address",
          "name": "newOwner",
          "type": "address"
        }
      ],
      "name": "OwnershipTransferred",
      "type": "event"
    },
    {
      "anonymous": false,
      "inputs": [
        {
          "indexed": true,
          "internalType": "uint256",
          "name": "tokenId",
          "type": "uint256"
        },
        {
          "indexed": false,
          "internalType": "uint256",
          "name": "price",
          "type": "uint256"
        }
      ],
      "name": "TokenListed",
      "type": "event"
    },
    {
      "anonymous": false,
      "inputs": [
        {
          "indexed": true,
          "internalType": "uint256",
          "name": "tokenId",
          "type": "uint256"
        },
        {
          "indexed": true,
          "internalType": "address",
          "name": "seller",
          "type": "address"
        },
        {
          "indexed": true,
          "internalType": "address",
          "name": "buyer",
          "type": "address"
        },
        {
          "indexed": false,
          "internalType": "uint256",
          "name": "price",
          "type": "uint256"
        }
      ],
      "name": "TokenSold",
      "type": "event"
    },
    {
      "anonymous": false,
      "inputs": [
        {
          "indexed": true,
          "internalType": "uint256",
          "name": "tokenId",
          "type": "uint256"
        }
      ],
      "name": "TokenUnlisted",
      "type": "event"
    },
    {
      "anonymous": false,
      "inputs": [
        {
          "indexed": true,
          "internalType": "address",
          "name": "from",
          "type": "address"
        },
        {
          "indexed": true,
          "internalType": "address",
          "name": "to",
          "type": "address"
        },
        {
          "indexed": true,
          "internalType": "uint256",
          "name": "tokenId",
          "type": "uint256"
        }
      ],
      "name": "Transfer",
      "type": "event"
    },
    {
      "inputs": [
        {
          "internalType": "address",
          "name": "to",
          "type": "address"
        },
        {
          "internalType": "uint256",
          "name": "tokenId",
          "type": "uint256"
        }
      ],
      "name": "approve",
      "outputs": [],
      "stateMutability": "nonpayable",
      "type": "function"
    },
    {
      "inputs": [
        {
          "internalType": "address",
          "name": "owner",
          "type": "address"
        }
      ],
      "name": "balanceOf",
      "outputs": [
        {
          "internalType": "uint256",
          "name": "",
          "type": "uint256"
        }
      ],
      "stateMutability": "view",
      "type": "function"
    },
    {
      "inputs": [
        {
          "internalType": "uint256",
          "name": "tokenId",
          "type": "uint256"
        }
      ],
      "name": "buyAvailable",
      "outputs": [],
      "stateMutability": "payable",
      "type": "function"
    },
    {
      "inputs": [
        {
          "internalType": "uint256",
          "name": "tokenId",
          "type": "uint256"
        }
      ],
      "name": "getApproved",
      "outputs": [
        {
          "internalType": "address",
          "name": "",
          "type": "address"
        }
      ],
      "stateMutability": "view",
      "type": "function"
    },
    {
      "inputs": [
        {
          "internalType": "uint256",
          "name": "tokenId",
          "type": "uint256"
        }
      ],
      "name": "getText",
      "outputs": [
        {
          "internalType": "string",
          "name": "",
          "type": "string"
        }
      ],
      "stateMutability": "view",
      "type": "function"
    },
    {
      "inputs": [
        {
          "internalType": "uint256",
          "name": "tokenId",
          "type": "uint256"
        }
      ],
      "name": "getTokenPrice",
      "outputs": [
        {
          "internalType": "uint256",
          "name": "",
          "type": "uint256"
        }
      ],
      "stateMutability": "view",
      "type": "function"
    },
    {
      "inputs": [
        {
          "internalType": "address",
          "name": "owner",
          "type": "address"
        },
        {
          "internalType": "address",
          "name": "operator",
          "type": "address"
        }
      ],
      "name": "isApprovedForAll",
      "outputs": [
        {
          "internalType": "bool",
          "name": "",
          "type": "bool"
        }
      ],
      "stateMutability": "view",
      "type": "function"
    },
    {
      "inputs": [],
      "name": "listAvailable",
      "outputs": [
        {
          "internalType": "uint256[]",
          "name": "",
          "type": "uint256[]"
        }
      ],
      "stateMutability": "view",
      "type": "function"
    },
    {
      "inputs": [
        {
          "internalType": "uint256",
          "name": "tokenId",
          "type": "uint256"
        },
        {
          "internalType": "uint256",
          "name": "price",
          "type": "uint256"
        }
      ],
      "name": "listToMarket",
      "outputs": [],
      "stateMutability": "nonpayable",
      "type": "function"
    },
    {
      "inputs": [
        {
          "internalType": "address",
          "name": "recipient",
          "type": "address"
        },
        {
          "internalType": "string",
          "name": "description",
          "type": "string"
        },
        {
          "internalType": "string",
          "name": "imageUrl",
          "type": "string"
        }
      ],
      "name": "mintNFT",
      "outputs": [
        {
          "internalType": "uint256",
          "name": "",
          "type": "uint256"
        }
      ],
      "stateMutability": "nonpayable",
      "type": "function"
    },
    {
      "inputs": [],
      "name": "name",
      "outputs": [
        {
          "internalType": "string",
          "name": "",
          "type": "string"
        }
      ],
      "stateMutability": "view",
      "type": "function"
    },
    {
      "inputs": [],
      "name": "owner",
      "outputs": [
        {
          "internalType": "address",
          "name": "",
          "type": "address"
        }
      ],
      "stateMutability": "view",
      "type": "function"
    },
    {
      "inputs": [
        {
          "internalType": "uint256",
          "name": "tokenId",
          "type": "uint256"
        }
      ],
      "name": "ownerOf",
      "outputs": [
        {
          "internalType": "address",
          "name": "",
          "type": "address"
        }
      ],
      "stateMutability": "view",
      "type": "function"
    },
    {
      "inputs": [],
      "name": "renounceOwnership",
      "outputs": [],
      "stateMutability": "nonpayable",
      "type": "function"
    },
    {
      "inputs": [
        {
          "internalType": "address",
          "name": "from",
          "type": "address"
        },
        {
          "internalType": "address",
          "name": "to",
          "type": "address"
        },
        {
          "internalType": "uint256",
          "name": "tokenId",
          "type": "uint256"
        }
      ],
      "name": "safeTransferFrom",
      "outputs": [],
      "stateMutability": "nonpayable",
      "type": "function"
    },
    {
      "inputs": [
        {
          "internalType": "address",
          "name": "from",
          "type": "address"
        },
        {
          "internalType": "address",
          "name": "to",
          "type": "address"
        },
        {
          "internalType": "uint256",
          "name": "tokenId",
          "type": "uint256"
        },
        {
          "internalType": "bytes",
          "name": "data",
          "type": "bytes"
        }
      ],
      "name": "safeTransferFrom",
      "outputs": [],
      "stateMutability": "nonpayable",
      "type": "function"
    },
    {
      "inputs": [
        {
          "internalType": "address",
          "name": "operator",
          "type": "address"
        },
        {
          "internalType": "bool",
          "name": "approved",
          "type": "bool"
        }
      ],
      "name": "setApprovalForAll",
      "outputs": [],
      "stateMutability": "nonpayable",
      "type": "function"
    },
    {
      "inputs": [
        {
          "internalType": "bytes4",
          "name": "interfaceId",
          "type": "bytes4"
        }
      ],
      "name": "supportsInterface",
      "outputs": [
        {
          "internalType": "bool",
          "name": "",
          "type": "bool"
        }
      ],
      "stateMutability": "view",
      "type": "function"
    },
    {
      "inputs": [],
      "name": "symbol",
      "outputs": [
        {
          "internalType": "string",
          "name": "",
          "type": "string"
        }
      ],
      "stateMutability": "view",
      "type": "function"
    },
    {
      "inputs": [
        {
          "internalType": "uint256",
          "name": "tokenId",
          "type": "uint256"
        }
      ],
      "name": "tokenURI",
      "outputs": [
        {
          "internalType": "string",
          "name": "",
          "type": "string"
        }
      ],
      "stateMutability": "view",
      "type": "function"
    },
    {
      "inputs": [
        {
          "internalType": "address",
          "name": "from",
          "type": "address"
        },
        {
          "internalType": "address",
          "name": "to",
          "type": "address"
        },
        {
          "internalType": "uint256",
          "name": "tokenId",
          "type": "uint256"
        }
      ],
      "name": "transferFrom",
      "outputs": [],
      "stateMutability": "nonpayable",
      "type": "function"
    },
    {
      "inputs": [
        {
          "internalType": "address",
          "name": "newOwner",
          "type": "address"
        }
      ],
      "name": "transferOwnership",
      "outputs": [],
      "stateMutability": "nonpayable",
      "type": "function"
    },
    {
      "inputs": [
        {
          "internalType": "uint256",
          "name": "tokenId",
          "type": "uint256"
        }
      ],
      "name": "unlistFromMarket",
      "outputs": [],
      "stateMutability": "nonpayable",
      "type": "function"
    },
    {
      "inputs": [],
      "name": "withdrawFunds",
      "outputs": [],
      "stateMutability": "nonpayable",
      "type": "function"
    }
  ],
  "bytecode": "0x60806040523480156200001157600080fd5b5060405162004087380380620040878339818101604052810190620000379190620003e2565b80826040518060400160405280600981526020017f4163636573734b65790000000000000000000000000000000000000000000000815250816000908162000080919062000693565b50806001908162000092919062000693565b505050600073ffffffffffffffffffffffffffffffffffffffff168173ffffffffffffffffffffffffffffffffffffffff16036200010a5760006040517f1e4fbdf70000000000000000000000000000000000000000000000000000000081526004016200010191906200078b565b60405180910390fd5b6200011b816200012460201b60201c565b505050620007a8565b6000600760009054906101000a900473ffffffffffffffffffffffffffffffffffffffff16905081600760006101000a81548173ffffffffffffffffffffffffffffffffffffffff021916908373ffffffffffffffffffffffffffffffffffffffff1602179055508173ffffffffffffffffffffffffffffffffffffffff168173ffffffffffffffffffffffffffffffffffffffff167f8be0079c531659141344cd1fd0a4f28419497f9722a3daafe3b4186f6b6457e060405160405180910390a35050565b6000604051905090565b600080fd5b600080fd5b600080fd5b600080fd5b6000601f19601f8301169050919050565b7f4e487b7100000000000000000000000000000000000000000000000000000000600052604160045260246000fd5b620002538262000208565b810181811067ffffffffffffffff8211171562000275576200027462000219565b5b80604052505050565b60006200028a620001ea565b905062000298828262000248565b919050565b600067ffffffffffffffff821115620002bb57620002ba62000219565b5b620002c68262000208565b9050602081019050919050565b60005b83811015620002f3578082015181840152602081019050620002d6565b60008484015250505050565b60006200031662000310846200029d565b6200027e565b90508281526020810184848401111562000335576200033462000203565b5b62000342848285620002d3565b509392505050565b600082601f830112620003625762000361620001fe565b5b815162000374848260208601620002ff565b91505092915050565b600073ffffffffffffffffffffffffffffffffffffffff82169050919050565b6000620003aa826200037d565b9050919050565b620003bc816200039d565b8114620003c857600080fd5b50565b600081519050620003dc81620003b1565b92915050565b60008060408385031215620003fc57620003fb620001f4565b5b600083015167ffffffffffffffff8111156200041d576200041c620001f9565b5b6200042b858286016200034a565b92505060206200043e85828601620003cb565b9150509250929050565b600081519050919050565b7f4e487b7100000000000000000000000000000000000000000000000000000000600052602260045260246000fd5b600060028204905060018216806200049b57607f821691505b602082108103620004b157620004b062000453565b5b50919050565b60008190508160005260206000209050919050565b60006020601f8301049050919050565b600082821b905092915050565b6000600883026200051b7fffffffffffffffffffffffffffffffffffffffffffffffffffffffffffffffff82620004dc565b620005278683620004dc565b95508019841693508086168417925050509392505050565b6000819050919050565b6000819050919050565b6000620005746200056e62000568846200053f565b62000549565b6200053f565b9050919050565b6000819050919050565b620005908362000553565b620005a86200059f826200057b565b848454620004e9565b825550505050565b600090565b620005bf620005b0565b620005cc81848462000585565b505050565b5b81811015620005f457620005e8600082620005b5565b600181019050620005d2565b5050565b601f82111562000643576200060d81620004b7565b6200061884620004cc565b8101602085101562000628578190505b620006406200063785620004cc565b830182620005d1565b50505b505050565b600082821c905092915050565b6000620006686000198460080262000648565b1980831691505092915050565b600062000683838362000655565b9150826002028217905092915050565b6200069e8262000448565b67ffffffffffffffff811115620006ba57620006b962000219565b5b620006c6825462000482565b620006d3828285620005f8565b600060209050601f8311600181146200070b5760008415620006f6578287015190505b62000702858262000675565b86555062000772565b601f1984166200071b86620004b7565b60005b8281101562000745578489015182556001820191506020850194506020810190506200071e565b8683101562000765578489015162000761601f89168262000655565b8355505b6001600288020188555050505b505050505050565b62000785816200039d565b82525050565b6000602082019050620007a260008301846200077a565b92915050565b6138cf80620007b86000396000f3fe60806040526004361061014b5760003560e01c8063715018a6116100b6578063a57cf9111161006f578063a57cf91114610481578063b88d4fde146104aa578063c457fb37146104d3578063c87b56dd14610510578063e985e9c51461054d578063f2fde38b1461058a5761014b565b8063715018a6146103715780637f4ef9d4146103885780638da5cb5b146103c557806395d89b41146103f0578063a22cb4651461041b578063a3ee38ae146104445761014b565b80631905767c116101085780631905767c1461027257806323b872dd1461028e57806324600fc3146102b757806342842e0e146102ce5780636352211e146102f757806370a08231146103345761014b565b806301ffc9a71461015057806306fdde031461018d578063081812fc146101b8578063095ea7b3146101f55780630cc12d821461021e5780630f21e70214610249575b600080fd5b34801561015c57600080fd5b506101776004803603810190610172919061273f565b6105b3565b6040516101849190612787565b60405180910390f35b34801561019957600080fd5b506101a2610614565b6040516101af9190612832565b60405180910390f35b3480156101c457600080fd5b506101df60048036038101906101da919061288a565b6106a6565b6040516101ec91906128f8565b60405180910390f35b34801561020157600080fd5b5061021c6004803603810190610217919061293f565b6106c2565b005b34801561022a57600080fd5b506102336106d8565b6040516102409190612a3d565b60405180910390f35b34801561025557600080fd5b50610270600480360381019061026b919061288a565b610730565b005b61028c6004803603810190610287919061288a565b610882565b005b34801561029a57600080fd5b506102b560048036038101906102b09190612a5f565b610b02565b005b3480156102c357600080fd5b506102cc610c04565b005b3480156102da57600080fd5b506102f560048036038101906102f09190612a5f565b610cb1565b005b34801561030357600080fd5b5061031e6004803603810190610319919061288a565b610cd1565b60405161032b91906128f8565b60405180910390f35b34801561034057600080fd5b5061035b60048036038101906103569190612ab2565b610ce3565b6040516103689190612aee565b60405180910390f35b34801561037d57600080fd5b50610386610d9d565b005b34801561039457600080fd5b506103af60048036038101906103aa919061288a565b610db1565b6040516103bc9190612832565b60405180910390f35b3480156103d157600080fd5b506103da610e56565b6040516103e791906128f8565b60405180910390f35b3480156103fc57600080fd5b50610405610e80565b6040516104129190612832565b60405180910390f35b34801561042757600080fd5b50610442600480360381019061043d9190612b35565b610f12565b005b34801561045057600080fd5b5061046b60048036038101906104669190612caa565b610f28565b6040516104789190612aee565b60405180910390f35b34801561048d57600080fd5b506104a860048036038101906104a39190612d35565b610fe0565b005b3480156104b657600080fd5b506104d160048036038101906104cc9190612e16565b6111a3565b005b3480156104df57600080fd5b506104fa60048036038101906104f5919061288a565b6111c8565b6040516105079190612aee565b60405180910390f35b34801561051c57600080fd5b506105376004803603810190610532919061288a565b611245565b6040516105449190612832565b60405180910390f35b34801561055957600080fd5b50610574600480360381019061056f9190612e99565b611358565b6040516105819190612787565b60405180910390f35b34801561059657600080fd5b506105b160048036038101906105ac9190612ab2565b6113ec565b005b6000634906490660e01b7bffffffffffffffffffffffffffffffffffffffffffffffffffffffff1916827bffffffffffffffffffffffffffffffffffffffffffffffffffffffff1916148061060d575061060c82611472565b5b9050919050565b60606000805461062390612f08565b80601f016020809104026020016040519081016040528092919081815260200182805461064f90612f08565b801561069c5780601f106106715761010080835404028352916020019161069c565b820191906000526020600020905b81548152906001019060200180831161067f57829003601f168201915b5050505050905090565b60006106b182611554565b506106bb826115dc565b9050919050565b6106d482826106cf611619565b611621565b5050565b6060600c80548060200260200160405190810160405280929190818152602001828054801561072657602002820191906000526020600020905b815481526020019060010190808311610712575b5050505050905090565b3373ffffffffffffffffffffffffffffffffffffffff1661075082610cd1565b73ffffffffffffffffffffffffffffffffffffffff16146107a6576040517f08c379a000000000000000000000000000000000000000000000000000000000815260040161079d90612f85565b60405180910390fd5b600b600082815260200190815260200160002060009054906101000a900460ff16610806576040517f08c379a00000000000000000000000000000000000000000000000000000000081526004016107fd90612ff1565b60405180910390fd5b61080f81611633565b6000600b600083815260200190815260200160002060006101000a81548160ff021916908315150217905550600a600082815260200190815260200160002060009055807fe0bba5d0bdeddbcc4ef688b9d8170c81883fb4c4a7065d8970c58b47996dd2d760405160405180910390a250565b600b600082815260200190815260200160002060009054906101000a900460ff166108e2576040517f08c379a00000000000000000000000000000000000000000000000000000000081526004016108d99061305d565b60405180910390fd5b600a6000828152602001908152602001600020543414610937576040517f08c379a000000000000000000000000000000000000000000000000000000000815260040161092e906130c9565b60405180910390fd5b600061094282610cd1565b90503373ffffffffffffffffffffffffffffffffffffffff168173ffffffffffffffffffffffffffffffffffffffff16036109b2576040517f08c379a00000000000000000000000000000000000000000000000000000000081526004016109a990613135565b60405180910390fd5b60006064600a346109c39190613184565b6109cd91906131f5565b9050600081346109dd9190613226565b90506109e884611633565b6000600b600086815260200190815260200160002060006101000a81548160ff021916908315150217905550600a600085815260200190815260200160002060009055610a368333866116f8565b81600d6000828254610a48919061325a565b925050819055508273ffffffffffffffffffffffffffffffffffffffff166108fc829081150290604051600060405180830381858888f19350505050158015610a95573d6000803e3d6000fd5b503373ffffffffffffffffffffffffffffffffffffffff168373ffffffffffffffffffffffffffffffffffffffff16857f3d5eb834b5d6cadc063c171c3f25f60bca8ea892ba9db25342278927d0af955634604051610af49190612aee565b60405180910390a450505050565b600073ffffffffffffffffffffffffffffffffffffffff168273ffffffffffffffffffffffffffffffffffffffff1603610b745760006040517f64a0ae92000000000000000000000000000000000000000000000000000000008152600401610b6b91906128f8565b60405180910390fd5b6000610b888383610b83611619565b611865565b90508373ffffffffffffffffffffffffffffffffffffffff168173ffffffffffffffffffffffffffffffffffffffff1614610bfe578382826040517f64283d7b000000000000000000000000000000000000000000000000000000008152600401610bf59392919061328e565b60405180910390fd5b50505050565b610c0c611a7f565b6000600d5411610c51576040517f08c379a0000000000000000000000000000000000000000000000000000000008152600401610c4890613311565b60405180910390fd5b6000600d5490506000600d81905550610c68610e56565b73ffffffffffffffffffffffffffffffffffffffff166108fc829081150290604051600060405180830381858888f19350505050158015610cad573d6000803e3d6000fd5b5050565b610ccc838383604051806020016040528060008152506111a3565b505050565b6000610cdc82611554565b9050919050565b60008073ffffffffffffffffffffffffffffffffffffffff168273ffffffffffffffffffffffffffffffffffffffff1603610d565760006040517f89c62b64000000000000000000000000000000000000000000000000000000008152600401610d4d91906128f8565b60405180910390fd5b600360008373ffffffffffffffffffffffffffffffffffffffff1673ffffffffffffffffffffffffffffffffffffffff168152602001908152602001600020549050919050565b610da5611a7f565b610daf6000611b06565b565b6060600960008381526020019081526020016000208054610dd190612f08565b80601f0160208091040260200160405190810160405280929190818152602001828054610dfd90612f08565b8015610e4a5780601f10610e1f57610100808354040283529160200191610e4a565b820191906000526020600020905b815481529060010190602001808311610e2d57829003601f168201915b50505050509050919050565b6000600760009054906101000a900473ffffffffffffffffffffffffffffffffffffffff16905090565b606060018054610e8f90612f08565b80601f0160208091040260200160405190810160405280929190818152602001828054610ebb90612f08565b8015610f085780601f10610edd57610100808354040283529160200191610f08565b820191906000526020600020905b815481529060010190602001808311610eeb57829003601f168201915b5050505050905090565b610f24610f1d611619565b8383611bcc565b5050565b6000610f32611a7f565b60086000815480929190610f4590613331565b919050555060006008549050610f5b8582611d3b565b83600960008381526020019081526020016000209081610f7b9190613525565b50610f868184611e34565b808573ffffffffffffffffffffffffffffffffffffffff167fd35bb95e09c04b219e35047ce7b7b300e3384264ef84a40456943dbc0fc17c1486604051610fcd9190612832565b60405180910390a3809150509392505050565b3373ffffffffffffffffffffffffffffffffffffffff1661100083610cd1565b73ffffffffffffffffffffffffffffffffffffffff1614611056576040517f08c379a000000000000000000000000000000000000000000000000000000000815260040161104d90612f85565b60405180910390fd5b60008111611099576040517f08c379a000000000000000000000000000000000000000000000000000000000815260040161109090613643565b60405180910390fd5b600b600083815260200190815260200160002060009054906101000a900460ff16156110fa576040517f08c379a00000000000000000000000000000000000000000000000000000000081526004016110f1906136af565b60405180910390fd5b6001600b600084815260200190815260200160002060006101000a81548160ff02191690831515021790555080600a600084815260200190815260200160002081905550600c829080600181540180825580915050600190039060005260206000200160009091909190915055817f1ea85aaf6731daa0c29195039c2a36576fb04e2cd16335504fab8967dfb03f15826040516111979190612aee565b60405180910390a25050565b6111ae848484610b02565b6111c26111b9611619565b85858585611e90565b50505050565b6000600b600083815260200190815260200160002060009054906101000a900460ff1661122a576040517f08c379a00000000000000000000000000000000000000000000000000000000081526004016112219061305d565b60405180910390fd5b600a6000838152602001908152602001600020549050919050565b606061125082611554565b50600060066000848152602001908152602001600020805461127190612f08565b80601f016020809104026020016040519081016040528092919081815260200182805461129d90612f08565b80156112ea5780601f106112bf576101008083540402835291602001916112ea565b820191906000526020600020905b8154815290600101906020018083116112cd57829003601f168201915b5050505050905060006112fb612041565b90506000815103611310578192505050611353565b60008251111561134557808260405160200161132d92919061370b565b60405160208183030381529060405292505050611353565b61134e84612058565b925050505b919050565b6000600560008473ffffffffffffffffffffffffffffffffffffffff1673ffffffffffffffffffffffffffffffffffffffff16815260200190815260200160002060008373ffffffffffffffffffffffffffffffffffffffff1673ffffffffffffffffffffffffffffffffffffffff16815260200190815260200160002060009054906101000a900460ff16905092915050565b6113f4611a7f565b600073ffffffffffffffffffffffffffffffffffffffff168173ffffffffffffffffffffffffffffffffffffffff16036114665760006040517f1e4fbdf700000000000000000000000000000000000000000000000000000000815260040161145d91906128f8565b60405180910390fd5b61146f81611b06565b50565b60007f80ac58cd000000000000000000000000000000000000000000000000000000007bffffffffffffffffffffffffffffffffffffffffffffffffffffffff1916827bffffffffffffffffffffffffffffffffffffffffffffffffffffffff1916148061153d57507f5b5e139f000000000000000000000000000000000000000000000000000000007bffffffffffffffffffffffffffffffffffffffffffffffffffffffff1916827bffffffffffffffffffffffffffffffffffffffffffffffffffffffff1916145b8061154d575061154c826120c1565b5b9050919050565b6000806115608361212b565b9050600073ffffffffffffffffffffffffffffffffffffffff168173ffffffffffffffffffffffffffffffffffffffff16036115d357826040517f7e2732890000000000000000000000000000000000000000000000000000000081526004016115ca9190612aee565b60405180910390fd5b80915050919050565b60006004600083815260200190815260200160002060009054906101000a900473ffffffffffffffffffffffffffffffffffffffff169050919050565b600033905090565b61162e8383836001612168565b505050565b60005b600c805490508110156116f45781600c82815481106116585761165761372f565b5b9060005260206000200154036116e757600c6001600c8054905061167c9190613226565b8154811061168d5761168c61372f565b5b9060005260206000200154600c82815481106116ac576116ab61372f565b5b9060005260206000200181905550600c8054806116cc576116cb61375e565b5b600190038181906000526020600020016000905590556116f4565b8080600101915050611636565b5050565b600073ffffffffffffffffffffffffffffffffffffffff168273ffffffffffffffffffffffffffffffffffffffff160361176a5760006040517f64a0ae9200000000000000000000000000000000000000000000000000000000815260040161176191906128f8565b60405180910390fd5b600061177883836000611865565b9050600073ffffffffffffffffffffffffffffffffffffffff168173ffffffffffffffffffffffffffffffffffffffff16036117eb57816040517f7e2732890000000000000000000000000000000000000000000000000000000081526004016117e29190612aee565b60405180910390fd5b8373ffffffffffffffffffffffffffffffffffffffff168173ffffffffffffffffffffffffffffffffffffffff161461185f578382826040517f64283d7b0000000000000000000000000000000000000000000000000000000081526004016118569392919061328e565b60405180910390fd5b50505050565b6000806118718461212b565b9050600073ffffffffffffffffffffffffffffffffffffffff168373ffffffffffffffffffffffffffffffffffffffff16146118b3576118b281848661232d565b5b600073ffffffffffffffffffffffffffffffffffffffff168173ffffffffffffffffffffffffffffffffffffffff1614611944576118f5600085600080612168565b6001600360008373ffffffffffffffffffffffffffffffffffffffff1673ffffffffffffffffffffffffffffffffffffffff168152602001908152602001600020600082825403925050819055505b600073ffffffffffffffffffffffffffffffffffffffff168573ffffffffffffffffffffffffffffffffffffffff16146119c7576001600360008773ffffffffffffffffffffffffffffffffffffffff1673ffffffffffffffffffffffffffffffffffffffff168152602001908152602001600020600082825401925050819055505b846002600086815260200190815260200160002060006101000a81548173ffffffffffffffffffffffffffffffffffffffff021916908373ffffffffffffffffffffffffffffffffffffffff160217905550838573ffffffffffffffffffffffffffffffffffffffff168273ffffffffffffffffffffffffffffffffffffffff167fddf252ad1be2c89b69c2b068fc378daa952ba7f163c4a11628f55a4df523b3ef60405160405180910390a4809150509392505050565b611a87611619565b73ffffffffffffffffffffffffffffffffffffffff16611aa5610e56565b73ffffffffffffffffffffffffffffffffffffffff1614611b0457611ac8611619565b6040517f118cdaa7000000000000000000000000000000000000000000000000000000008152600401611afb91906128f8565b60405180910390fd5b565b6000600760009054906101000a900473ffffffffffffffffffffffffffffffffffffffff16905081600760006101000a81548173ffffffffffffffffffffffffffffffffffffffff021916908373ffffffffffffffffffffffffffffffffffffffff1602179055508173ffffffffffffffffffffffffffffffffffffffff168173ffffffffffffffffffffffffffffffffffffffff167f8be0079c531659141344cd1fd0a4f28419497f9722a3daafe3b4186f6b6457e060405160405180910390a35050565b600073ffffffffffffffffffffffffffffffffffffffff168273ffffffffffffffffffffffffffffffffffffffff1603611c3d57816040517f5b08ba18000000000000000000000000000000000000000000000000000000008152600401611c3491906128f8565b60405180910390fd5b80600560008573ffffffffffffffffffffffffffffffffffffffff1673ffffffffffffffffffffffffffffffffffffffff16815260200190815260200160002060008473ffffffffffffffffffffffffffffffffffffffff1673ffffffffffffffffffffffffffffffffffffffff16815260200190815260200160002060006101000a81548160ff0219169083151502179055508173ffffffffffffffffffffffffffffffffffffffff168373ffffffffffffffffffffffffffffffffffffffff167f17307eab39ab6107e8899845ad3d59bd9653f200f220920489ca2b5937696c3183604051611d2e9190612787565b60405180910390a3505050565b600073ffffffffffffffffffffffffffffffffffffffff168273ffffffffffffffffffffffffffffffffffffffff1603611dad5760006040517f64a0ae92000000000000000000000000000000000000000000000000000000008152600401611da491906128f8565b60405180910390fd5b6000611dbb83836000611865565b9050600073ffffffffffffffffffffffffffffffffffffffff168173ffffffffffffffffffffffffffffffffffffffff1614611e2f5760006040517f73c6ac6e000000000000000000000000000000000000000000000000000000008152600401611e2691906128f8565b60405180910390fd5b505050565b80600660008481526020019081526020016000209081611e549190613525565b507ff8e1a15aba9398e019f0b49df1a4fde98ee17ae345cb5f6b5e2c27f5033e8ce782604051611e849190612aee565b60405180910390a15050565b60008373ffffffffffffffffffffffffffffffffffffffff163b111561203a578273ffffffffffffffffffffffffffffffffffffffff1663150b7a02868685856040518563ffffffff1660e01b8152600401611eef94939291906137e2565b6020604051808303816000875af1925050508015611f2b57506040513d601f19601f82011682018060405250810190611f289190613843565b60015b611faf573d8060008114611f5b576040519150601f19603f3d011682016040523d82523d6000602084013e611f60565b606091505b506000815103611fa757836040517f64a0ae92000000000000000000000000000000000000000000000000000000008152600401611f9e91906128f8565b60405180910390fd5b805181602001fd5b63150b7a0260e01b7bffffffffffffffffffffffffffffffffffffffffffffffffffffffff1916817bffffffffffffffffffffffffffffffffffffffffffffffffffffffff19161461203857836040517f64a0ae9200000000000000000000000000000000000000000000000000000000815260040161202f91906128f8565b60405180910390fd5b505b5050505050565b606060405180602001604052806000815250905090565b606061206382611554565b50600061206e612041565b9050600081511161208e57604051806020016040528060008152506120b9565b80612098846123f1565b6040516020016120a992919061370b565b6040516020818303038152906040525b915050919050565b60007f01ffc9a7000000000000000000000000000000000000000000000000000000007bffffffffffffffffffffffffffffffffffffffffffffffffffffffff1916827bffffffffffffffffffffffffffffffffffffffffffffffffffffffff1916149050919050565b60006002600083815260200190815260200160002060009054906101000a900473ffffffffffffffffffffffffffffffffffffffff169050919050565b80806121a15750600073ffffffffffffffffffffffffffffffffffffffff168273ffffffffffffffffffffffffffffffffffffffff1614155b156122d55760006121b184611554565b9050600073ffffffffffffffffffffffffffffffffffffffff168373ffffffffffffffffffffffffffffffffffffffff161415801561221c57508273ffffffffffffffffffffffffffffffffffffffff168173ffffffffffffffffffffffffffffffffffffffff1614155b801561222f575061222d8184611358565b155b1561227157826040517fa9fbf51f00000000000000000000000000000000000000000000000000000000815260040161226891906128f8565b60405180910390fd5b81156122d357838573ffffffffffffffffffffffffffffffffffffffff168273ffffffffffffffffffffffffffffffffffffffff167f8c5be1e5ebec7d5bd14f71427d1e84f3dd0314c0f7b2291e5b200ac8c7c3b92560405160405180910390a45b505b836004600085815260200190815260200160002060006101000a81548173ffffffffffffffffffffffffffffffffffffffff021916908373ffffffffffffffffffffffffffffffffffffffff16021790555050505050565b6123388383836124bf565b6123ec57600073ffffffffffffffffffffffffffffffffffffffff168373ffffffffffffffffffffffffffffffffffffffff16036123ad57806040517f7e2732890000000000000000000000000000000000000000000000000000000081526004016123a49190612aee565b60405180910390fd5b81816040517f177e802f0000000000000000000000000000000000000000000000000000000081526004016123e3929190613870565b60405180910390fd5b505050565b60606000600161240084612580565b01905060008167ffffffffffffffff81111561241f5761241e612b7f565b5b6040519080825280601f01601f1916602001820160405280156124515781602001600182028036833780820191505090505b509050600082602001820190505b6001156124b4578080600190039150507f3031323334353637383961626364656600000000000000000000000000000000600a86061a8153600a85816124a8576124a76131c6565b5b0494506000850361245f575b819350505050919050565b60008073ffffffffffffffffffffffffffffffffffffffff168373ffffffffffffffffffffffffffffffffffffffff161415801561257757508273ffffffffffffffffffffffffffffffffffffffff168473ffffffffffffffffffffffffffffffffffffffff16148061253857506125378484611358565b5b8061257657508273ffffffffffffffffffffffffffffffffffffffff1661255e836115dc565b73ffffffffffffffffffffffffffffffffffffffff16145b5b90509392505050565b600080600090507a184f03e93ff9f4daa797ed6e38ed64bf6a1f01000000000000000083106125de577a184f03e93ff9f4daa797ed6e38ed64bf6a1f01000000000000000083816125d4576125d36131c6565b5b0492506040810190505b6d04ee2d6d415b85acef8100000000831061261b576d04ee2d6d415b85acef81000000008381612611576126106131c6565b5b0492506020810190505b662386f26fc10000831061264a57662386f26fc1000083816126405761263f6131c6565b5b0492506010810190505b6305f5e1008310612673576305f5e1008381612669576126686131c6565b5b0492506008810190505b612710831061269857612710838161268e5761268d6131c6565b5b0492506004810190505b606483106126bb57606483816126b1576126b06131c6565b5b0492506002810190505b600a83106126ca576001810190505b80915050919050565b6000604051905090565b600080fd5b600080fd5b60007fffffffff0000000000000000000000000000000000000000000000000000000082169050919050565b61271c816126e7565b811461272757600080fd5b50565b60008135905061273981612713565b92915050565b600060208284031215612755576127546126dd565b5b60006127638482850161272a565b91505092915050565b60008115159050919050565b6127818161276c565b82525050565b600060208201905061279c6000830184612778565b92915050565b600081519050919050565b600082825260208201905092915050565b60005b838110156127dc5780820151818401526020810190506127c1565b60008484015250505050565b6000601f19601f8301169050919050565b6000612804826127a2565b61280e81856127ad565b935061281e8185602086016127be565b612827816127e8565b840191505092915050565b6000602082019050818103600083015261284c81846127f9565b905092915050565b6000819050919050565b61286781612854565b811461287257600080fd5b50565b6000813590506128848161285e565b92915050565b6000602082840312156128a05761289f6126dd565b5b60006128ae84828501612875565b91505092915050565b600073ffffffffffffffffffffffffffffffffffffffff82169050919050565b60006128e2826128b7565b9050919050565b6128f2816128d7565b82525050565b600060208201905061290d60008301846128e9565b92915050565b61291c816128d7565b811461292757600080fd5b50565b60008135905061293981612913565b92915050565b60008060408385031215612956576129556126dd565b5b60006129648582860161292a565b925050602061297585828601612875565b9150509250929050565b600081519050919050565b600082825260208201905092915050565b6000819050602082019050919050565b6129b481612854565b82525050565b60006129c683836129ab565b60208301905092915050565b6000602082019050919050565b60006129ea8261297f565b6129f4818561298a565b93506129ff8361299b565b8060005b83811015612a30578151612a1788826129ba565b9750612a22836129d2565b925050600181019050612a03565b5085935050505092915050565b60006020820190508181036000830152612a5781846129df565b905092915050565b600080600060608486031215612a7857612a776126dd565b5b6000612a868682870161292a565b9350506020612a978682870161292a565b9250506040612aa886828701612875565b9150509250925092565b600060208284031215612ac857612ac76126dd565b5b6000612ad68482850161292a565b91505092915050565b612ae881612854565b82525050565b6000602082019050612b036000830184612adf565b92915050565b612b128161276c565b8114612b1d57600080fd5b50565b600081359050612b2f81612b09565b92915050565b60008060408385031215612b4c57612b4b6126dd565b5b6000612b5a8582860161292a565b9250506020612b6b85828601612b20565b9150509250929050565b600080fd5b600080fd5b7f4e487b7100000000000000000000000000000000000000000000000000000000600052604160045260246000fd5b612bb7826127e8565b810181811067ffffffffffffffff82111715612bd657612bd5612b7f565b5b80604052505050565b6000612be96126d3565b9050612bf58282612bae565b919050565b600067ffffffffffffffff821115612c1557612c14612b7f565b5b612c1e826127e8565b9050602081019050919050565b82818337600083830152505050565b6000612c4d612c4884612bfa565b612bdf565b905082815260208101848484011115612c6957612c68612b7a565b5b612c74848285612c2b565b509392505050565b600082601f830112612c9157612c90612b75565b5b8135612ca1848260208601612c3a565b91505092915050565b600080600060608486031215612cc357612cc26126dd565b5b6000612cd18682870161292a565b935050602084013567ffffffffffffffff811115612cf257612cf16126e2565b5b612cfe86828701612c7c565b925050604084013567ffffffffffffffff811115612d1f57612d1e6126e2565b5b612d2b86828701612c7c565b9150509250925092565b60008060408385031215612d4c57612d4b6126dd565b5b6000612d5a85828601612875565b9250506020612d6b85828601612875565b9150509250929050565b600067ffffffffffffffff821115612d9057612d8f612b7f565b5b612d99826127e8565b9050602081019050919050565b6000612db9612db484612d75565b612bdf565b905082815260208101848484011115612dd557612dd4612b7a565b5b612de0848285612c2b565b509392505050565b600082601f830112612dfd57612dfc612b75565b5b8135612e0d848260208601612da6565b91505092915050565b60008060008060808587031215612e3057612e2f6126dd565b5b6000612e3e8782880161292a565b9450506020612e4f8782880161292a565b9350506040612e6087828801612875565b925050606085013567ffffffffffffffff811115612e8157612e806126e2565b5b612e8d87828801612de8565b91505092959194509250565b60008060408385031215612eb057612eaf6126dd565b5b6000612ebe8582860161292a565b9250506020612ecf8582860161292a565b9150509250929050565b7f4e487b7100000000000000000000000000000000000000000000000000000000600052602260045260246000fd5b60006002820490506001821680612f2057607f821691505b602082108103612f3357612f32612ed9565b5b50919050565b7f4e6f742074686520746f6b656e206f776e657200000000000000000000000000600082015250565b6000612f6f6013836127ad565b9150612f7a82612f39565b602082019050919050565b60006020820190508181036000830152612f9e81612f62565b9050919050565b7f546f6b656e206e6f74206c697374656400000000000000000000000000000000600082015250565b6000612fdb6010836127ad565b9150612fe682612fa5565b602082019050919050565b6000602082019050818103600083015261300a81612fce565b9050919050565b7f546f6b656e206e6f7420666f722073616c650000000000000000000000000000600082015250565b60006130476012836127ad565b915061305282613011565b602082019050919050565b600060208201905081810360008301526130768161303a565b9050919050565b7f496e636f7272656374207061796d656e7420616d6f756e740000000000000000600082015250565b60006130b36018836127ad565b91506130be8261307d565b602082019050919050565b600060208201905081810360008301526130e2816130a6565b9050919050565b7f43616e6e6f742062757920796f7572206f776e20746f6b656e00000000000000600082015250565b600061311f6019836127ad565b915061312a826130e9565b602082019050919050565b6000602082019050818103600083015261314e81613112565b9050919050565b7f4e487b7100000000000000000000000000000000000000000000000000000000600052601160045260246000fd5b600061318f82612854565b915061319a83612854565b92508282026131a881612854565b915082820484148315176131bf576131be613155565b5b5092915050565b7f4e487b7100000000000000000000000000000000000000000000000000000000600052601260045260246000fd5b600061320082612854565b915061320b83612854565b92508261321b5761321a6131c6565b5b828204905092915050565b600061323182612854565b915061323c83612854565b925082820390508181111561325457613253613155565b5b92915050565b600061326582612854565b915061327083612854565b925082820190508082111561328857613287613155565b5b92915050565b60006060820190506132a360008301866128e9565b6132b06020830185612adf565b6132bd60408301846128e9565b949350505050565b7f4e6f2066756e647320746f207769746864726177000000000000000000000000600082015250565b60006132fb6014836127ad565b9150613306826132c5565b602082019050919050565b6000602082019050818103600083015261332a816132ee565b9050919050565b600061333c82612854565b91507fffffffffffffffffffffffffffffffffffffffffffffffffffffffffffffffff820361336e5761336d613155565b5b600182019050919050565b60008190508160005260206000209050919050565b60006020601f8301049050919050565b600082821b905092915050565b6000600883026133db7fffffffffffffffffffffffffffffffffffffffffffffffffffffffffffffffff8261339e565b6133e5868361339e565b95508019841693508086168417925050509392505050565b6000819050919050565b600061342261341d61341884612854565b6133fd565b612854565b9050919050565b6000819050919050565b61343c83613407565b61345061344882613429565b8484546133ab565b825550505050565b600090565b613465613458565b613470818484613433565b505050565b5b818110156134945761348960008261345d565b600181019050613476565b5050565b601f8211156134d9576134aa81613379565b6134b38461338e565b810160208510156134c2578190505b6134d66134ce8561338e565b830182613475565b50505b505050565b600082821c905092915050565b60006134fc600019846008026134de565b1980831691505092915050565b600061351583836134eb565b9150826002028217905092915050565b61352e826127a2565b67ffffffffffffffff81111561354757613546612b7f565b5b6135518254612f08565b61355c828285613498565b600060209050601f83116001811461358f576000841561357d578287015190505b6135878582613509565b8655506135ef565b601f19841661359d86613379565b60005b828110156135c5578489015182556001820191506020850194506020810190506135a0565b868310156135e257848901516135de601f8916826134eb565b8355505b6001600288020188555050505b505050505050565b7f5072696365206d7573742062652067726561746572207468616e203000000000600082015250565b600061362d601c836127ad565b9150613638826135f7565b602082019050919050565b6000602082019050818103600083015261365c81613620565b9050919050565b7f546f6b656e20616c7265616479206c6973746564000000000000000000000000600082015250565b60006136996014836127ad565b91506136a482613663565b602082019050919050565b600060208201905081810360008301526136c88161368c565b9050919050565b600081905092915050565b60006136e5826127a2565b6136ef81856136cf565b93506136ff8185602086016127be565b80840191505092915050565b600061371782856136da565b915061372382846136da565b91508190509392505050565b7f4e487b7100000000000000000000000000000000000000000000000000000000600052603260045260246000fd5b7f4e487b7100000000000000000000000000000000000000000000000000000000600052603160045260246000fd5b600081519050919050565b600082825260208201905092915050565b60006137b48261378d565b6137be8185613798565b93506137ce8185602086016127be565b6137d7816127e8565b840191505092915050565b60006080820190506137f760008301876128e9565b61380460208301866128e9565b6138116040830185612adf565b818103606083015261382381846137a9565b905095945050505050565b60008151905061383d81612713565b92915050565b600060208284031215613859576138586126dd565b5b60006138678482850161382e565b91505092915050565b600060408201905061388560008301856128e9565b6138926020830184612adf565b939250505056fea26469706673582212204a7b13b682aa015ea9cbf83e00c3042bfefb27a30460cebbcdd7ef7d2934228464736f6c63430008180033",
  "linkReferences": {},
  "deployedLinkReferences": {}
}