{
  "_format": "hh-sol-artifact-1",
  "contractName": "MyNFT",
  "sourceName": "contracts/MyNFT.sol",
  "abi": [
    {
      "inputs": [
        {
          "internalType": "address",
          "name": "initialOwner",
          "type": "address"
        }
      ],
      "stateMutability": "nonpayable",
      "type": "constructor"
    },
    {
      "inputs": [
        {
          "internalType": "address",
          "name": "sender",
          "type": "address"
        },
        {
          "internalType": "uint256",
          "name": "tokenId",
          "type": "uint256"
        },
        {
          "internalType": "address",
          "name": "owner",
          "type": "address"
        }
      ],
      "name": "ERC721IncorrectOwner",
      "type": "error"
    },
    {
      "inputs": [
        {
          "internalType": "address",
          "name": "operator",
          "type": "address"
        },
        {
          "internalType": "uint256",
          "name": "tokenId",
          "type": "uint256"
        }
      ],
      "name": "ERC721InsufficientApproval",
      "type": "error"
    },
    {
      "inputs": [
        {
          "internalType": "address",
          "name": "approver",
          "type": "address"
        }
      ],
      "name": "ERC721InvalidApprover",
      "type": "error"
    },
    {
      "inputs": [
        {
          "internalType": "address",
          "name": "operator",
          "type": "address"
        }
      ],
      "name": "ERC721InvalidOperator",
      "type": "error"
    },
    {
      "inputs": [
        {
          "internalType": "address",
          "name": "owner",
          "type": "address"
        }
      ],
      "name": "ERC721InvalidOwner",
      "type": "error"
    },
    {
      "inputs": [
        {
          "internalType": "address",
          "name": "receiver",
          "type": "address"
        }
      ],
      "name": "ERC721InvalidReceiver",
      "type": "error"
    },
    {
      "inputs": [
        {
          "internalType": "address",
          "name": "sender",
          "type": "address"
        }
      ],
      "name": "ERC721InvalidSender",
      "type": "error"
    },
    {
      "inputs": [
        {
          "internalType": "uint256",
          "name": "tokenId",
          "type": "uint256"
        }
      ],
      "name": "ERC721NonexistentToken",
      "type": "error"
    },
    {
      "inputs": [
        {
          "internalType": "address",
          "name": "owner",
          "type": "address"
        }
      ],
      "name": "OwnableInvalidOwner",
      "type": "error"
    },
    {
      "inputs": [
        {
          "internalType": "address",
          "name": "account",
          "type": "address"
        }
      ],
      "name": "OwnableUnauthorizedAccount",
      "type": "error"
    },
    {
      "anonymous": false,
      "inputs": [
        {
          "indexed": true,
          "internalType": "address",
          "name": "owner",
          "type": "address"
        },
        {
          "indexed": true,
          "internalType": "address",
          "name": "approved",
          "type": "address"
        },
        {
          "indexed": true,
          "internalType": "uint256",
          "name": "tokenId",
          "type": "uint256"
        }
      ],
      "name": "Approval",
      "type": "event"
    },
    {
      "anonymous": false,
      "inputs": [
        {
          "indexed": true,
          "internalType": "address",
          "name": "owner",
          "type": "address"
        },
        {
          "indexed": true,
          "internalType": "address",
          "name": "operator",
          "type": "address"
        },
        {
          "indexed": false,
          "internalType": "bool",
          "name": "approved",
          "type": "bool"
        }
      ],
      "name": "ApprovalForAll",
      "type": "event"
    },
    {
      "anonymous": false,
      "inputs": [
        {
          "indexed": false,
          "internalType": "uint256",
          "name": "_fromTokenId",
          "type": "uint256"
        },
        {
          "indexed": false,
          "internalType": "uint256",
          "name": "_toTokenId",
          "type": "uint256"
        }
      ],
      "name": "BatchMetadataUpdate",
      "type": "event"
    },
    {
      "anonymous": false,
      "inputs": [
        {
          "indexed": false,
          "internalType": "uint256",
          "name": "_tokenId",
          "type": "uint256"
        }
      ],
      "name": "MetadataUpdate",
      "type": "event"
    },
    {
      "anonymous": false,
      "inputs": [
        {
          "indexed": true,
          "internalType": "address",
          "name": "recipient",
          "type": "address"
        },
        {
          "indexed": true,
          "internalType": "uint256",
          "name": "tokenId",
          "type": "uint256"
        },
        {
          "indexed": false,
          "internalType": "string",
          "name": "description",
          "type": "string"
        }
      ],
      "name": "NFTMinted",
      "type": "event"
    },
    {
      "anonymous": false,
      "inputs": [
        {
          "indexed": true,
          "internalType": "address",
          "name": "previousOwner",
          "type": "address"
        },
        {
          "indexed": true,
          "internalType": "address",
          "name": "newOwner",
          "type": "address"
        }
      ],
      "name": "OwnershipTransferred",
      "type": "event"
    },
    {
      "anonymous": false,
      "inputs": [
        {
          "indexed": true,
          "internalType": "address",
          "name": "from",
          "type": "address"
        },
        {
          "indexed": true,
          "internalType": "address",
          "name": "to",
          "type": "address"
        },
        {
          "indexed": true,
          "internalType": "uint256",
          "name": "tokenId",
          "type": "uint256"
        }
      ],
      "name": "Transfer",
      "type": "event"
    },
    {
      "inputs": [
        {
          "internalType": "address",
          "name": "to",
          "type": "address"
        },
        {
          "internalType": "uint256",
          "name": "tokenId",
          "type": "uint256"
        }
      ],
      "name": "approve",
      "outputs": [],
      "stateMutability": "nonpayable",
      "type": "function"
    },
    {
      "inputs": [
        {
          "internalType": "address",
          "name": "owner",
          "type": "address"
        }
      ],
      "name": "balanceOf",
      "outputs": [
        {
          "internalType": "uint256",
          "name": "",
          "type": "uint256"
        }
      ],
      "stateMutability": "view",
      "type": "function"
    },
    {
      "inputs": [
        {
          "internalType": "uint256",
          "name": "tokenId",
          "type": "uint256"
        }
      ],
      "name": "getApproved",
      "outputs": [
        {
          "internalType": "address",
          "name": "",
          "type": "address"
        }
      ],
      "stateMutability": "view",
      "type": "function"
    },
    {
      "inputs": [
        {
          "internalType": "uint256",
          "name": "tokenId",
          "type": "uint256"
        }
      ],
      "name": "getText",
      "outputs": [
        {
          "internalType": "string",
          "name": "",
          "type": "string"
        }
      ],
      "stateMutability": "view",
      "type": "function"
    },
    {
      "inputs": [
        {
          "internalType": "address",
          "name": "owner",
          "type": "address"
        },
        {
          "internalType": "address",
          "name": "operator",
          "type": "address"
        }
      ],
      "name": "isApprovedForAll",
      "outputs": [
        {
          "internalType": "bool",
          "name": "",
          "type": "bool"
        }
      ],
      "stateMutability": "view",
      "type": "function"
    },
    {
      "inputs": [
        {
          "internalType": "address",
          "name": "recipient",
          "type": "address"
        },
        {
          "internalType": "string",
          "name": "description",
          "type": "string"
        },
        {
          "internalType": "string",
          "name": "imageUrl",
          "type": "string"
        }
      ],
      "name": "mintNFT",
      "outputs": [
        {
          "internalType": "uint256",
          "name": "",
          "type": "uint256"
        }
      ],
      "stateMutability": "nonpayable",
      "type": "function"
    },
    {
      "inputs": [],
      "name": "name",
      "outputs": [
        {
          "internalType": "string",
          "name": "",
          "type": "string"
        }
      ],
      "stateMutability": "view",
      "type": "function"
    },
    {
      "inputs": [],
      "name": "owner",
      "outputs": [
        {
          "internalType": "address",
          "name": "",
          "type": "address"
        }
      ],
      "stateMutability": "view",
      "type": "function"
    },
    {
      "inputs": [
        {
          "internalType": "uint256",
          "name": "tokenId",
          "type": "uint256"
        }
      ],
      "name": "ownerOf",
      "outputs": [
        {
          "internalType": "address",
          "name": "",
          "type": "address"
        }
      ],
      "stateMutability": "view",
      "type": "function"
    },
    {
      "inputs": [],
      "name": "renounceOwnership",
      "outputs": [],
      "stateMutability": "nonpayable",
      "type": "function"
    },
    {
      "inputs": [
        {
          "internalType": "address",
          "name": "from",
          "type": "address"
        },
        {
          "internalType": "address",
          "name": "to",
          "type": "address"
        },
        {
          "internalType": "uint256",
          "name": "tokenId",
          "type": "uint256"
        }
      ],
      "name": "safeTransferFrom",
      "outputs": [],
      "stateMutability": "nonpayable",
      "type": "function"
    },
    {
      "inputs": [
        {
          "internalType": "address",
          "name": "from",
          "type": "address"
        },
        {
          "internalType": "address",
          "name": "to",
          "type": "address"
        },
        {
          "internalType": "uint256",
          "name": "tokenId",
          "type": "uint256"
        },
        {
          "internalType": "bytes",
          "name": "data",
          "type": "bytes"
        }
      ],
      "name": "safeTransferFrom",
      "outputs": [],
      "stateMutability": "nonpayable",
      "type": "function"
    },
    {
      "inputs": [
        {
          "internalType": "address",
          "name": "operator",
          "type": "address"
        },
        {
          "internalType": "bool",
          "name": "approved",
          "type": "bool"
        }
      ],
      "name": "setApprovalForAll",
      "outputs": [],
      "stateMutability": "nonpayable",
      "type": "function"
    },
    {
      "inputs": [
        {
          "internalType": "bytes4",
          "name": "interfaceId",
          "type": "bytes4"
        }
      ],
      "name": "supportsInterface",
      "outputs": [
        {
          "internalType": "bool",
          "name": "",
          "type": "bool"
        }
      ],
      "stateMutability": "view",
      "type": "function"
    },
    {
      "inputs": [],
      "name": "symbol",
      "outputs": [
        {
          "internalType": "string",
          "name": "",
          "type": "string"
        }
      ],
      "stateMutability": "view",
      "type": "function"
    },
    {
      "inputs": [
        {
          "internalType": "uint256",
          "name": "tokenId",
          "type": "uint256"
        }
      ],
      "name": "tokenURI",
      "outputs": [
        {
          "internalType": "string",
          "name": "",
          "type": "string"
        }
      ],
      "stateMutability": "view",
      "type": "function"
    },
    {
      "inputs": [
        {
          "internalType": "address",
          "name": "from",
          "type": "address"
        },
        {
          "internalType": "address",
          "name": "to",
          "type": "address"
        },
        {
          "internalType": "uint256",
          "name": "tokenId",
          "type": "uint256"
        }
      ],
      "name": "transferFrom",
      "outputs": [],
      "stateMutability": "nonpayable",
      "type": "function"
    },
    {
      "inputs": [
        {
          "internalType": "address",
          "name": "newOwner",
          "type": "address"
        }
      ],
      "name": "transferOwnership",
      "outputs": [],
      "stateMutability": "nonpayable",
      "type": "function"
    }
  ],
  "bytecode": "0x60806040523480156200001157600080fd5b506040516200183138038062001831833981016040819052620000349162000130565b80604051806040016040528060098152602001684d69737472616c414960b81b815250604051806040016040528060098152602001684163636573734b657960b81b81525081600090816200008a919062000209565b50600162000099828262000209565b5050506001600160a01b038116620000cb57604051631e4fbdf760e01b81526000600482015260240160405180910390fd5b620000d681620000de565b5050620002d5565b600780546001600160a01b038381166001600160a01b0319831681179093556040519116919082907f8be0079c531659141344cd1fd0a4f28419497f9722a3daafe3b4186f6b6457e090600090a35050565b6000602082840312156200014357600080fd5b81516001600160a01b03811681146200015b57600080fd5b9392505050565b634e487b7160e01b600052604160045260246000fd5b600181811c908216806200018d57607f821691505b602082108103620001ae57634e487b7160e01b600052602260045260246000fd5b50919050565b601f82111562000204576000816000526020600020601f850160051c81016020861015620001df5750805b601f850160051c820191505b818110156200020057828155600101620001eb565b5050505b505050565b81516001600160401b0381111562000225576200022562000162565b6200023d8162000236845462000178565b84620001b4565b602080601f8311600181146200027557600084156200025c5750858301515b600019600386901b1c1916600185901b17855562000200565b600085815260208120601f198616915b82811015620002a65788860151825594840194600190910190840162000285565b5085821015620002c55787850151600019600388901b60f8161c191681555b5050505050600190811b01905550565b61154c80620002e56000396000f3fe608060405234801561001057600080fd5b50600436106101165760003560e01c80637f4ef9d4116100a2578063a3ee38ae11610071578063a3ee38ae14610239578063b88d4fde1461024c578063c87b56dd1461025f578063e985e9c514610272578063f2fde38b1461028557600080fd5b80637f4ef9d4146101fa5780638da5cb5b1461020d57806395d89b411461021e578063a22cb4651461022657600080fd5b806323b872dd116100e957806323b872dd1461019857806342842e0e146101ab5780636352211e146101be57806370a08231146101d1578063715018a6146101f257600080fd5b806301ffc9a71461011b57806306fdde0314610143578063081812fc14610158578063095ea7b314610183575b600080fd5b61012e610129366004610fdb565b610298565b60405190151581526020015b60405180910390f35b61014b6102c3565b60405161013a9190611048565b61016b61016636600461105b565b610355565b6040516001600160a01b03909116815260200161013a565b610196610191366004611090565b61037e565b005b6101966101a63660046110ba565b61038d565b6101966101b93660046110ba565b61041d565b61016b6101cc36600461105b565b61043d565b6101e46101df3660046110f6565b610448565b60405190815260200161013a565b610196610490565b61014b61020836600461105b565b6104a4565b6007546001600160a01b031661016b565b61014b610546565b610196610234366004611111565b610555565b6101e46102473660046111f9565b610560565b61019661025a36600461126d565b6105f9565b61014b61026d36600461105b565b610610565b61012e6102803660046112e9565b610721565b6101966102933660046110f6565b61074f565b60006001600160e01b03198216632483248360e11b14806102bd57506102bd8261078d565b92915050565b6060600080546102d29061131c565b80601f01602080910402602001604051908101604052809291908181526020018280546102fe9061131c565b801561034b5780601f106103205761010080835404028352916020019161034b565b820191906000526020600020905b81548152906001019060200180831161032e57829003601f168201915b5050505050905090565b6000610360826107dd565b506000828152600460205260409020546001600160a01b03166102bd565b610389828233610816565b5050565b6001600160a01b0382166103bc57604051633250574960e11b8152600060048201526024015b60405180910390fd5b60006103c9838333610823565b9050836001600160a01b0316816001600160a01b031614610417576040516364283d7b60e01b81526001600160a01b03808616600483015260248201849052821660448201526064016103b3565b50505050565b610438838383604051806020016040528060008152506105f9565b505050565b60006102bd826107dd565b60006001600160a01b038216610474576040516322718ad960e21b8152600060048201526024016103b3565b506001600160a01b031660009081526003602052604090205490565b61049861091c565b6104a26000610949565b565b60008181526009602052604090208054606091906104c19061131c565b80601f01602080910402602001604051908101604052809291908181526020018280546104ed9061131c565b801561053a5780601f1061050f5761010080835404028352916020019161053a565b820191906000526020600020905b81548152906001019060200180831161051d57829003601f168201915b50505050509050919050565b6060600180546102d29061131c565b61038933838361099b565b600061056a61091c565b6008805490600061057a83611356565b909155505060085461058c8582610a3a565b60008181526009602052604090206105a485826113cd565b506105af8184610a9f565b80856001600160a01b03167fd35bb95e09c04b219e35047ce7b7b300e3384264ef84a40456943dbc0fc17c14866040516105e99190611048565b60405180910390a3949350505050565b61060484848461038d565b61041784848484610aef565b606061061b826107dd565b50600082815260066020526040812080546106359061131c565b80601f01602080910402602001604051908101604052809291908181526020018280546106619061131c565b80156106ae5780601f10610683576101008083540402835291602001916106ae565b820191906000526020600020905b81548152906001019060200180831161069157829003601f168201915b5050505050905060006106cc60408051602081019091526000815290565b905080516000036106de575092915050565b8151156107105780826040516020016106f892919061148d565b60405160208183030381529060405292505050919050565b61071984610c18565b949350505050565b6001600160a01b03918216600090815260056020908152604080832093909416825291909152205460ff1690565b61075761091c565b6001600160a01b03811661078157604051631e4fbdf760e01b8152600060048201526024016103b3565b61078a81610949565b50565b60006001600160e01b031982166380ac58cd60e01b14806107be57506001600160e01b03198216635b5e139f60e01b145b806102bd57506301ffc9a760e01b6001600160e01b03198316146102bd565b6000818152600260205260408120546001600160a01b0316806102bd57604051637e27328960e01b8152600481018490526024016103b3565b6104388383836001610c8d565b6000828152600260205260408120546001600160a01b039081169083161561085057610850818486610d93565b6001600160a01b0381161561088e5761086d600085600080610c8d565b6001600160a01b038116600090815260036020526040902080546000190190555b6001600160a01b038516156108bd576001600160a01b0385166000908152600360205260409020805460010190555b60008481526002602052604080822080546001600160a01b0319166001600160a01b0389811691821790925591518793918516917fddf252ad1be2c89b69c2b068fc378daa952ba7f163c4a11628f55a4df523b3ef91a4949350505050565b6007546001600160a01b031633146104a25760405163118cdaa760e01b81523360048201526024016103b3565b600780546001600160a01b038381166001600160a01b0319831681179093556040519116919082907f8be0079c531659141344cd1fd0a4f28419497f9722a3daafe3b4186f6b6457e090600090a35050565b6001600160a01b0382166109cd57604051630b61174360e31b81526001600160a01b03831660048201526024016103b3565b6001600160a01b03838116600081815260056020908152604080832094871680845294825291829020805460ff191686151590811790915591519182527f17307eab39ab6107e8899845ad3d59bd9653f200f220920489ca2b5937696c31910160405180910390a3505050565b6001600160a01b038216610a6457604051633250574960e11b8152600060048201526024016103b3565b6000610a7283836000610823565b90506001600160a01b03811615610438576040516339e3563760e11b8152600060048201526024016103b3565b6000828152600660205260409020610ab782826113cd565b506040518281527ff8e1a15aba9398e019f0b49df1a4fde98ee17ae345cb5f6b5e2c27f5033e8ce79060200160405180910390a15050565b6001600160a01b0383163b1561041757604051630a85bd0160e11b81526001600160a01b0384169063150b7a0290610b319033908890879087906004016114bc565b6020604051808303816000875af1925050508015610b6c575060408051601f3d908101601f19168201909252610b69918101906114f9565b60015b610bd5573d808015610b9a576040519150601f19603f3d011682016040523d82523d6000602084013e610b9f565b606091505b508051600003610bcd57604051633250574960e11b81526001600160a01b03851660048201526024016103b3565b805181602001fd5b6001600160e01b03198116630a85bd0160e11b14610c1157604051633250574960e11b81526001600160a01b03851660048201526024016103b3565b5050505050565b6060610c23826107dd565b506000610c3b60408051602081019091526000815290565b90506000815111610c5b5760405180602001604052806000815250610c86565b80610c6584610df7565b604051602001610c7692919061148d565b6040516020818303038152906040525b9392505050565b8080610ca157506001600160a01b03821615155b15610d63576000610cb1846107dd565b90506001600160a01b03831615801590610cdd5750826001600160a01b0316816001600160a01b031614155b8015610cf05750610cee8184610721565b155b15610d195760405163a9fbf51f60e01b81526001600160a01b03841660048201526024016103b3565b8115610d615783856001600160a01b0316826001600160a01b03167f8c5be1e5ebec7d5bd14f71427d1e84f3dd0314c0f7b2291e5b200ac8c7c3b92560405160405180910390a45b505b5050600090815260046020526040902080546001600160a01b0319166001600160a01b0392909216919091179055565b610d9e838383610e8a565b610438576001600160a01b038316610dcc57604051637e27328960e01b8152600481018290526024016103b3565b60405163177e802f60e01b81526001600160a01b0383166004820152602481018290526044016103b3565b60606000610e0483610eed565b600101905060008167ffffffffffffffff811115610e2457610e2461114d565b6040519080825280601f01601f191660200182016040528015610e4e576020820181803683370190505b5090508181016020015b600019016f181899199a1a9b1b9c1cb0b131b232b360811b600a86061a8153600a8504945084610e5857509392505050565b60006001600160a01b038316158015906107195750826001600160a01b0316846001600160a01b03161480610ec45750610ec48484610721565b806107195750506000908152600460205260409020546001600160a01b03908116911614919050565b60008072184f03e93ff9f4daa797ed6e38ed64bf6a1f0160401b8310610f2c5772184f03e93ff9f4daa797ed6e38ed64bf6a1f0160401b830492506040015b6d04ee2d6d415b85acef81000000008310610f58576d04ee2d6d415b85acef8100000000830492506020015b662386f26fc100008310610f7657662386f26fc10000830492506010015b6305f5e1008310610f8e576305f5e100830492506008015b6127108310610fa257612710830492506004015b60648310610fb4576064830492506002015b600a83106102bd5760010192915050565b6001600160e01b03198116811461078a57600080fd5b600060208284031215610fed57600080fd5b8135610c8681610fc5565b60005b83811015611013578181015183820152602001610ffb565b50506000910152565b60008151808452611034816020860160208601610ff8565b601f01601f19169290920160200192915050565b602081526000610c86602083018461101c565b60006020828403121561106d57600080fd5b5035919050565b80356001600160a01b038116811461108b57600080fd5b919050565b600080604083850312156110a357600080fd5b6110ac83611074565b946020939093013593505050565b6000806000606084860312156110cf57600080fd5b6110d884611074565b92506110e660208501611074565b9150604084013590509250925092565b60006020828403121561110857600080fd5b610c8682611074565b6000806040838503121561112457600080fd5b61112d83611074565b91506020830135801515811461114257600080fd5b809150509250929050565b634e487b7160e01b600052604160045260246000fd5b600067ffffffffffffffff8084111561117e5761117e61114d565b604051601f8501601f19908116603f011681019082821181831017156111a6576111a661114d565b816040528093508581528686860111156111bf57600080fd5b858560208301376000602087830101525050509392505050565b600082601f8301126111ea57600080fd5b610c8683833560208501611163565b60008060006060848603121561120e57600080fd5b61121784611074565b9250602084013567ffffffffffffffff8082111561123457600080fd5b611240878388016111d9565b9350604086013591508082111561125657600080fd5b50611263868287016111d9565b9150509250925092565b6000806000806080858703121561128357600080fd5b61128c85611074565b935061129a60208601611074565b925060408501359150606085013567ffffffffffffffff8111156112bd57600080fd5b8501601f810187136112ce57600080fd5b6112dd87823560208401611163565b91505092959194509250565b600080604083850312156112fc57600080fd5b61130583611074565b915061131360208401611074565b90509250929050565b600181811c9082168061133057607f821691505b60208210810361135057634e487b7160e01b600052602260045260246000fd5b50919050565b60006001820161137657634e487b7160e01b600052601160045260246000fd5b5060010190565b601f821115610438576000816000526020600020601f850160051c810160208610156113a65750805b601f850160051c820191505b818110156113c5578281556001016113b2565b505050505050565b815167ffffffffffffffff8111156113e7576113e761114d565b6113fb816113f5845461131c565b8461137d565b602080601f83116001811461143057600084156114185750858301515b600019600386901b1c1916600185901b1785556113c5565b600085815260208120601f198616915b8281101561145f57888601518255948401946001909101908401611440565b508582101561147d5787850151600019600388901b60f8161c191681555b5050505050600190811b01905550565b6000835161149f818460208801610ff8565b8351908301906114b3818360208801610ff8565b01949350505050565b6001600160a01b03858116825284166020820152604081018390526080606082018190526000906114ef9083018461101c565b9695505050505050565b60006020828403121561150b57600080fd5b8151610c8681610fc556fea26469706673582212203cc441d14af5299b07106f2c2cebce7a9f2203e8a63e75a3e9b10335409db06a64736f6c63430008180033",
  "linkReferences": {},
  "deployedLinkReferences": {}
}